:020000040800F2
:10000000384600203D020008ED200008E5200008E9
:10001000E9200008571B00083D2F000800000000E1
:100020000000000000000000000000004F02000877
:10003000111D000800000000530200084D250008B3
:10004000570200085702000857020008352300082D
:100050005702000857020008151D0008ED1D000892
:10006000111E0008351E0008591E0008570200081E
:1000700057020008570200085702000857020008FC
:1000800057020008570200085702000857020008EC
:10009000192F000857020008570200087D1E0008AB
:1000A0005702000899260008570200085702000866
:1000B00031270008C52700085D28000857020008FE
:1000C00057020008570200085702000857020008AC
:1000D00057020008F92B00085D2C0008C12C00080D
:1000E000391D0008570200085702000800F002F806
:1000F00000F094F80AA090E8000C82448344AAF12E
:100100000107DA4501D100F089F8AFF2090EBAE82B
:100110000F0013F0010F18BFFB1A43F0010318473B
:100120007059000090590000103A24BF78C878C177
:10013000FAD8520724BF30C830C144BF04680C60ED
:10014000704700000023002400250026103A28BF35
:1001500078C1FBD8520728BF30C148BF0B60704739
:100160006E2900F05983702900F0B186662905F0E8
:100170001184652905F00E84672905F00B84612937
:10018000AFF3008003681B0A28BF41F08001692992
:1001900000F03681642900F03381752900F0308148
:1001A0006F2900F03E86782900F07D86E92900F06D
:1001B000D985E42900F0D685F52900F0D385EF290B
:1001C00000F03B86F82900F07C860368DB0928BF35
:1001D00041F08001632900F01987732900F01E8720
:1001E000E32900F02987F32900F02E8700207047CB
:1001F0001FB500F01AFA00F077FA04000020002181
:1002000005F04AFA401C60600020002105F05AFA0F
:10021000E06000F057FA1FBD10B510BD00F0ACFF54
:100220001146FFF7E5FF04F0EFFF00F0CAFF03B44B
:10023000FFF7F2FF03BC00F099FF00000948804778
:1002400009480047FEE7FEE7FEE7FEE7FEE7FEE7B8
:10025000FEE7FEE7FEE7FEE704480549054A064BD0
:100260007047000039260008ED00000838400020E3
:1002700038460020384200203842002010B500F0F7
:1002800033FA001D10BD00BF1154000053EA020CE8
:1002900000F069802DE9F04B4FF00006002B1FBFE6
:1002A000B3FA83F503FA05F424FA05F65E4012BFAB
:1002B0001643B2FA82F502FA05F4C5F120051EBF15
:1002C00022FA05FC44EA0C04203556EA044C4FEAB5
:1002D000144418BF641C4FF000084FF0000990420E
:1002E00071EB030C39D3002919BFB1FA81F701FA78
:1002F00007F6B0FA80F700FA07F6C7F120071EBF2D
:1003000020FA07FC46EA0C062037B6FBF4FCA7EB04
:100310000507103F07F01F0BCBF120060CFA0BFB73
:100320002CFA06F644BFB3460026202FA4BF5E4633
:100330004FF0000B5BEA060C08BF4FF0010B19EB06
:100340000B09ABFB027C48EB0608C01B06FB02CC8A
:100350000BFB03CC71EB0C01C1E70B460246414697
:100360004846BDE8F08B13B54FF000004FF0000198
:10037000AFF30080BDE81C40704700007CB51D460F
:1003800016460C00009001D02044401E074B7B44D1
:100390002A4669460190304600F065FC05461CB1CE
:1003A0000020694600F072FC28467CBD050900006B
:1003B00070B5044685690068C10601D5302600E0A5
:1003C0002026C00707D070BDD4E9012130469047F0
:1003D000206A401C20626D1EF6D570BD70B50446C3
:1003E00085690078C00707D170BDD4E901212020BC
:1003F0009047206A401C20626D1EF6D570BD00003B
:100400002DE9F0410646002410687529314616A5ED
:1004100010D000F06DF9002802DA404213A507E081
:1004200031688A0701D512A502E0490704D511A554
:10043000012401E000F065F900210A2206F12407F9
:1004400009E0B0FBF2FCB0FBF2F302FB1C00303021
:1004500078541846491C0028F3D123462A463046D2
:10046000BDE8F04100F07FB9000000002D00000061
:100470002B000000200000002DE9F05F89460446B3
:100480004FF0000ADFF874B1FB44C0F820A020460A
:10049000E1688847002874D0252806D0D4E90121D6
:1004A0009047206A401C2062F1E700265F46204604
:1004B000E16888472028054607DB312D05D27819E9
:1004C00010F8200C08B10643F1E7B00701D526F07B
:1004D0000406C4F81CA00027C4F818A02A2D09D0CF
:1004E000284604F0D3FD38B304EB8708303DC8F844
:1004F000185019E059F8041B204604EB870291615B
:10050000E1688847012F054618D1E069002820DA04
:1005100026F020061DE0D8F8180000EB800005EB5F
:1005200040003038C8F818002046E1688847054682
:1005300004F0ACFD0028EED1012F0AD02E2D08D1F9
:100540002046E16888477F1C0546022F46F02006BA
:10055000C4DBA069002803DA404246F00106A0612E
:10056000F00701D026F010066C2D0BD0682D09D0B5
:100570004C2D39D06A2D35D0742D35D07A2D33D00D
:1005800016E038E0E1682F4620468847B842054625
:1005900009D16C2F26D04FF48060E16806432046D5
:1005A0008847054604E06C2F1AD04FF4807006434C
:1005B0000DB3A5F14100192802D8203546F4006694
:1005C0004A462946204626604E46FFF7C9FD80B1BF
:1005D00001280BD0F61D26F0070000F1080956E7A8
:1005E0004020E4E78020D8E70020D6E706F10409A0
:1005F0004DE7284652E7206ABDE8F09F0C55000001
:100600000B4910B5A1F17C020A4CC2E9371237211F
:1006100006E000EB104342F82130074B00FB03409B
:100620000B1EA1F10101F4DC10BD0120E8E7000080
:100630006C3F0020E119D666CD0D01004FF0013C62
:1006400050F8042B51F8043B9A4221D1A2EB0C0341
:10065000934313EACC1317D150F8042B51F8043B01
:100660009A4215D1A2EB0C03934313EACC130BD19E
:1006700050F8042B51F8043B9A4209D1A2EB0C0329
:10068000934313EACC13DBD04FF00000704700BF58
:10069000D01A01BAB1FA81F101F0180122FA01F081
:1006A000CB40C1F12001DBB2C0B2C01A2CFA01F379
:1006B000D11A914311EAC311E6D1704770477047D0
:1006C0007047000070B5064C7C44064D7D4403E045
:1006D000206820448047241DAC42F9D170BD000041
:1006E000105500001855000000487047F43F0020E6
:1006F00009684A0501D540B27047C905FCD500B26A
:10070000704709684A0501D5C0B27047C905FCD5D4
:1007100080B2704770B50C460546012A05D028788E
:10072000800600D5EA69002302E0012305E05B1C96
:10073000934202D2E05C0028F9D1A869E618C01AF9
:10074000A861286A184428622846FFF731FE04E0B1
:10075000D5E9012114F8010B9047B442F8D328469B
:10076000FFF73CFE70BD2DE9F0470D4699469246D5
:10077000044600F124080168880604D5E06921F0E8
:100780001001216000E00120A84201DD471B00E0CC
:100790000027A1697A1902EB0900081AA0612078E4
:1007A000C00602D42046FFF703FE002608E0D4E985
:1007B00001211AF806009047206A401C761C20622E
:1007C0004E45F4DB2078C0060AD52046FFF7F0FD41
:1007D00006E0D4E9012130209047206A401C2062C5
:1007E000381EA7F10107F4DC07E0D4E9012118F86D
:1007F00005009047206A401C2062281EA5F10105D3
:10080000F3DC2046FFF7EAFD2078000602D502203F
:10081000BDE8F0870120FBE711680268006A530514
:1008200001D508700AE0D30501D5088006E013065B
:1008300003D5C217C1E9000200E00860012070473B
:1008400070472DE9FF4F0C461E464FF0FF378BB027
:10085000D2E90001DDF860800A908A46C1F30A55AA
:1008600005B93D46002108464FF00000BAF1000FDF
:1008700000F4400005DA00EB80004FF4400101EA8B
:1008800050004FEA9059B9F1010F00DDB9460A98BE
:1008900050EA4A000ED044F61050A5F2FF35454309
:1008A0002F14B8F1000F1ED07542291E1EDDC9F1AC
:1008B00000021CE0B8F1010F4FF0000001D0302120
:1008C00003E0F24305E02154401CB042FBDB30461C
:1008D0000022002121540B99C1F80880C1E90020B1
:1008E0000FB0BDE8F08FBD1B6D1CDEE74A4600DA95
:1008F000694206A800F0ACFB06AB93E8070003AB27
:1009000083E8070050460A9900F065FC8DE807006F
:10091000A0F500501F3800900398002D09DD42F229
:100920001F014A46084403A90390684600F0C4FE2C
:1009300008E0A0F500504A461F3803A90390684616
:1009400000F0CEFE8DE807000004000C03D04FF04D
:10095000FF30410800E01046B8F1000F03D000223C
:10096000009215461EE0751E05D400F0BFFA303225
:1009700062556D1EF9D5B3460122084302D000220C
:100980007F1C04E02078302801D100227F1E002A3D
:10099000099786D01DE0112D07DA00F0A7FA303252
:1009A00062556D1C50EA0102F5D1084302D000984F
:1009B000C8B10EE00021681E05E0235C625C635450
:1009C0002254401E491C8142F7DBAB46A81B401E47
:1009D0000990002004F80B000B98099AC0F80880D1
:1009E000C0E9002B7CE711264FF0000859E72DE9FC
:1009F000F04F88460446D21D22F0070191B0D1E99C
:100A00000001CDE90A0103F0BCFE02460B98C00FBD
:100A100001D02D2007E02068810701D52B2002E0BE
:100A2000202101EAC000032A099001D0072A05DB32
:100A300003464146204600F09FFA0BE120788006ED
:100A400001D5E06900E00620B8F1650F814606D0C7
:100A5000B8F1660F18D0B8F1670F70D131E00020FF
:100A6000B9F1110F009001DB112301E009F101033D
:100A70000AAA01A90CA8FFF7E4FEDDE90C70002624
:100A800009F10105834647E001204B4600904FF0F5
:100A900000470AAA01A90CA8FFF7D3FEDDE90DB0B3
:100AA0000C995D46002610B909F101000D18B9EB4B
:100AB000050003D4C0F1FF3609F10105A5EB0900DB
:100AC0002BE0B9F1010F01DA4FF001090020B9F173
:100AD000110F0090484601DD112300E003460AAAE9
:100AE00001A90CA8FFF7ADFEDDE90C704D4600260C
:100AF0008346207800070AD4AB4500DA5D4601A89A
:100B0000012D04DD411911F8011C302907D04F4592
:100B100002DA17F1040F04DA012082460FE06D1E9D
:100B2000EEE7002F02DCED1B3E4403E0781CA842F8
:100B300000DD7D1CB81B00F1010A4FF00047207852
:100B4000000703D4AA4501DB4FF0FF3A0021B7F1BB
:100B5000004F0DF143088DF8431024D002202B23C1
:100B6000002F01DA7F422D230A21021EA0F101008D
:100B700000DC5FB197FBF1FC97FBF1F201FB1C7C01
:100B800017460CF1300C08F801CDEEE7A8F1010092
:100B900003702188090501D5452100E06521A0F1F8
:100BA000010800F8011C09980FA9A1EB0807FF1D17
:100BB00000B10120411901EBEA70A1693844081A1B
:100BC000401EA0612078C00602D42046FFF7F0FB4B
:100BD000099828B1D4E901219047206A401C20627D
:100BE0002078C00622D52046FFF7E2FB1EE0002E4B
:100BF00004DBB34502DD01A8805D00E03020D4E9CC
:100C000001219047206A401C2062761CAAF1010055
:100C10005FEA000A0AD1FFF767FDC0680168405C1F
:100C2000D4E901219047206A401C2062281EA5F1CA
:100C30000105DCDC07E0D4E9012118F8010B90473D
:100C4000206A401C2062381EA7F10107F3DC204611
:100C5000FFF7C4FB032011B043E6000001694A1C02
:100C600002610878704700B58FB0CDE901310021ED
:100C7000059105497944CDE9031011466846FFF70F
:100C8000FBFB0FB000BD0000E5FFFFFF0A6802F8A4
:100C9000010B0A607047D1E900239A4202D2531C2B
:100CA0000B601070704700002DE9FF5F15468A4603
:100CB0000446DFF8AC80F8440027D8E900103E462F
:100CC000CDE9001010E03AF816106A4602A800F0CC
:100CD0002DFA411C07D02178890603D5E26939181D
:100CE00091420DD80744761C2078800602D5E06931
:100CF000B84205DDAE42E6DB3AF816000028E2D144
:100D0000A069C01BA0612046FFF752FBD8E9001084
:100D1000CDE90010002017E03AF818106A4602A842
:100D200000F004FAB0F1FF3F81460BD000250DF131
:100D3000080B05E0D4E901211BF8050090476D1C64
:100D40004D45F7D308F10100B0428046E4DB206A4C
:100D5000384420622046FFF741FBBDE8FF9F0000BA
:100D6000F24C00002DE9F0418046D21D22F007022E
:100D70000025D2E90002F52915A614D0011E72F152
:100D8000000106DA0023D0EB030063EB020211A698
:100D900008E0D8F800108B0701D50FA602E049073C
:100DA00001D50EA601251146002408F1240704E010
:100DB00000F09CF830323A55641C50EA0102F7D139
:100DC0002B46324621464046BDE8F041FFF7CBBCFA
:100DD000000000002D0000002B000000200000009B
:100DE00030B4002100F1240408E002F00705D20825
:100DF000303542EA4372DB086554491C52EA030568
:100E0000F3D10468002310A2250707D5A40600D457
:100E100021B1C46901230DA2641EC46130BCFFF777
:100E2000A2BC10B5044621461068FFF76AFC0246D2
:100E30002046BDE810400023D2E7D21D22F0070172
:100E4000D1E90023CCE700000000000030000000E2
:100E5000F0B40D460188090502D5214C7C4402E01E
:100E60001F4C7C440E34002100F1240608E002F0FF
:100E70000F071209E75D42EA03721B097754491C08
:100E800052EA0307F3D102780023120704D5702D2C
:100E900006D009B1022311342246F0BCFFF763BC2F
:100EA00001231034F8E770B504460D46214610685A
:100EB000FFF727FC024629462046BDE87040002384
:100EC000C6E7D21D22F00703D3E90023C0E7036879
:100ED000126843F0200303600823C3610023B7E7CF
:100EE000544B000000487047D43F002030B5B0F1AB
:100EF0000A024FEA900E71F100034EEA817EB0EBD8
:100F00000E0061EB91014FEA101E4EEA017E10EBDC
:100F10000E0041EB11114FEA102E4EEA016E10EB5C
:100F20000E0041EB11214FEA104E4EEA014E10EB3C
:100F30000E0041EB1141401841F100014FEAD00091
:100F400040EA41704FEAD10110EB80054FEA81047D
:100F500044EA907444EB01046D1944EB0404521B01
:100F6000A3414FF0000348BF0A3200D530BD401CFA
:100F700041F1000130BD00002DE9F0411F4604465B
:100F800003260168072A01F4006004DB08B116A5F6
:100F900005E016A503E008B115A500E015A521F0B0
:100FA00010002060A069C01EA0610FB1401EA061AA
:100FB0002046FFF7FDF94FB1D4E9012138469047AB
:100FC000206A401C2062C01C206206E0206AFAE70A
:100FD000D4E9012115F8010B9047761EF8D220467E
:100FE000FFF7FCF9BDE8F0814E414E006E616E00E6
:100FF000494E4600696E660010B5436913B1AFF300
:10100000008001E0FFF786FB012010BD127800F19F
:1010100024010A7000224A700122EDE711684FF0A6
:10102000FF32E9E710B5436913B1AFF3008001E087
:10103000FFF73AFE012010BD128800F124018284DE
:101040000022C2840122EDE711684FF0FF32E9E788
:101050002DE9F047814616468AB0334878440DC8DA
:101060008DE80D0030487844801C03AC0DC884E83E
:101070000D0041F69B300844372190FBF1F290FBC4
:10108000F1F5A5F1800501FB12041B3C02D5644279
:10109000012000E00020DFF890A080460027FA44FD
:1010A000AAF1BE0A0DE0E00709D03246684607EB18
:1010B00047010AEB810100F013FB8DE80700641083
:1010C0007F1C002CEFD1184F7F44AC3F18E0E8079D
:1010D00014D007EB04100DF1180A90E80E008AE80E
:1010E0000E00C068F04201D198190890324606A956
:1010F00003A800F0F5FA03AB83E807006D10641C49
:10110000002DE4D132466946B8F1000F03A802D0A1
:1011100000F0D2FA01E000F0E3FAC9E90001C9F8F1
:1011200008200AB0BDE8F087F849000070B51646FF
:101130000C460546FFF7A2F8036893F80101012861
:1011400006D0FF2C0FD8185D68B101202C7070BD3F
:10115000D3F807013246214603F207130344284619
:10116000BDE8704018474FF0FF3070BD01491820AE
:10117000ABBEFEE7260002007546FFF7B3FEAE46A3
:1011800005006946534620F00700854618B020B593
:10119000FFF762F8BDE820404FF000064FF000076F
:1011A0004FF000084FF0000B21F00701AC46ACE80F
:1011B000C009ACE8C009ACE8C009ACE8C0098D467C
:1011C000704710B50446AFF300802046BDE81040DC
:1011D000FFF72DB870475FEA400C08BF91F0000F91
:1011E0004FEA8C234FEAC12243EA51514FEA1C5087
:1011F00018BF00F5F0404FEA300018BF41F0004141
:101200005FEA6C5C00F02980BCF1FF3F08BF40F052
:1012100080407047130C06BF12044FF0100C4FF0C3
:10122000000C130E04BF12020CF1080C130F04BFC4
:1012300012010CF1040C930F04BF92000CF1020C8C
:10124000D30F04BF52000CF1010C11464FF0000205
:10125000A0F11F00A0EB0C00704711F0004F08BF79
:10126000704731F000413FF4D5AF0B0C06BF0904C5
:101270004FF0100C4FF0000C0B0E04BF09020CF1E4
:10128000080C0B0F04BF09010CF1040C8B0F04BFF9
:1012900089000CF1020CCB0F04BF49000CF1010CCA
:1012A000CCF12003A0EB0C0022FA03F302FA0CF2BB
:1012B00041EA030100F10100704720F07F4C80EA11
:1012C000030023F07F47ACEB070303F57C5300F0EA
:1012D000004003F1FF032DE980494FEA154B09B4A3
:1012E0004FEA144325EA0B4E24EA03480FF2042682
:1012F00006EB132749083E785FEA320203FB0667D4
:10130000C7F5000707FB06F64FEA54374FEAD64603
:1013100006F1020607FB066CCCF1005C4FEA1C47A5
:101320002CEA074C07FB06F40CFB06F504EB15460C
:101330004FEA961634BF00204FF000404FEAD137F5
:1013400006FB07FC4FEA1C4C0CFB0BF7D21B03FB04
:101350000CF761EB07010CFB0EF7B0EB074072EBEB
:1013600017420CFB08F734BFA2EB0742B2EB07426F
:1013700061EB17414FEA0C444FEA910706FB07FC6B
:101380004FEA1C4C0CFB0BF7B0EBC74072EB57322B
:1013900003FB0CF734BFA2EBC742B2EBC74261EBD1
:1013A00057310CFB0EF7B0EBC70072EB57720CFB1A
:1013B00008F734BFA2EBC702B2EBC70261EB57716B
:1013C000039F4FEA816141EA921104EBCC044FEA9A
:1013D000D1374FEA826206FB07FC42EA90124FEADD
:1013E00080604FEA1C4C0CFB0BF7D21B03FB0CF785
:1013F00061EB07010CFB0EF7B0EB074072EB1742F5
:101400000CFB08F734BFA2EB0742B2EB074261EBDB
:1014100017414FEA8C554FEA910704EB9C2406FBD9
:1014200007FC4FEA1C4C0CFB0BF7B0EBC74072EB10
:10143000573203FB0CF734BFA2EBC742B2EBC742F3
:1014400061EB57310CFB0EF7B0EBC70072EB577234
:101450000CFB08F734BFA2EBC702B2EBC70261EB8B
:10146000577115EB4C254FEA816141EA92114FEA21
:1014700082624FEAD13742EA901206FB07FC44F140
:1014800000044FEA80604FEA1C4C0CFB0BF7D21BA8
:1014900003FB0CF761EB07010CFB0EF7B0EB074009
:1014A00072EB17420CFB08F734BFA2EB0742B2EB1A
:1014B000074261EB174115EB1C154FEA813141EAF8
:1014C00092414FEA823242EA90424FEA80304FEA3C
:1014D0000C7644F1000448EA03434EEA0B484FF00F
:1014E000000EB2EB080C71EB030724BF62463946CD
:1014F0004EEB0E0E4FF0000B0018524149414BEBE2
:101500000B0BB2EB080C71EB03077BF1000B24BF54
:10151000624639464EEB0E0E4FF0000B001852415A
:1015200049414BEB0B0BB2EB080C71EB03077BF162
:10153000000B24BF624639464EEB0E0E51EA0207FD
:1015400018BF46F0010616EB0E7655F1000254F175
:10155000000103D5BDE88901BDE80088BDE8890127
:10156000BDE80048B619524141EB0101A3F1010366
:10157000704780807F7E7D7C7B7A79787776767500
:101580007473727171706F6E6E6D6C6C6B6A6A6978
:101590006868676666656464636362616160605F12
:1015A0005F5E5E5D5D5C5C5B5B5A5A59595858578B
:1015B00057565655555554545353525252515150F3
:1015C00050504F4F4F4E4E4D4D4D4C4C4C4B4B4B46
:1015D0004A4A4A494949484848474747474646468C
:1015E00045454544444444434343434242424241C7
:1015F0004141002B26D4770021D01CB54FEA370794
:1016000003B44FF010004FF010014FF000000FBC7A
:10161000BDE810400BF1010BBBF1010F08BF5FEA01
:10162000170722BF12F1010211F101014FF0004131
:1016300043F1000300F0004043EA00007047F9D393
:101640005708DAE746EA064613F1400F4FEA164616
:101650001FDD13F1200FDFBF16430A4600212033A0
:101660005B42C8D0C3F1200746EA064602FA07F7F4
:101670004FEA164646EA0706C3F1200722FA03F2AC
:1016800001FA07F721FA03F14FF0000342EA0702DB
:10169000B1E746EA020646EA06464FEA164646EA39
:1016A0000106BCBF46EA0646360C4FF000034FF079
:1016B00000024FF000019EE72DE9C048934630B488
:1016C00091E8380007C831EA400C48BF34EA430CBF
:1016D00003D5FFF7F2FDFFF78CFFF0BCBDE80088F3
:1016E0002DE9C048934630B491E8380007C810F09F
:1016F000804F08BF13F0804F03D100F005F8FFF7CB
:1017000078FFF0BCBDE8008820F07F4780EA030046
:1017100023F07F4C07EB0C03A3F57C5300F0004053
:10172000A3F1FE0392F0000F00F0B38095F0000FDC
:1017300000F077802DE901494FEA11404FEA144645
:1017400021EA004800FB06FC24EA064708FB06F6EF
:1017500007FB08F800FB07F718EB06484CEB164CA4
:101760004FEA124B18EB07484FEA15464CEB17406F
:1017700022EA0B4E0BFB06FC25EA06470EFB06F69B
:1017800007FB0EFE0BFB07F71EEB064E4CEB164C51
:101790004FF000061EEB074E4CEB174B18EB0B08F7
:1017A00040F1000018EB0E0B58EB000840F1000070
:1017B0008F1A4FF000013CBFC943661B14BFB5EB45
:1017C000040C00213CBFC943F61B4FEA17444EEA04
:1017D0008E0E27EA04454FEA1C4704FB07622CEAF9
:1017E000074C05FB07F70CFB05F604FB0CFC16EB9E
:1017F000074642EB174216EB0C4642EB1C421BEB32
:10180000060658EB0202414146EA9E0601D5BDE8B4
:101810000189B619524141EB0101A3F10103BDE871
:1018200001894FEA14454FEA114724EA054621EAA7
:10183000074C05FB07F406FB07F70CFB06F105FB5D
:101840000CFC11EB074144EB17444FEA124711EB34
:101850000C4144EB1C4422EA074C05FB07F206FB53
:1018600007F70CFB06F605FB0CFC16EB074642EBF4
:10187000174216EB0C4642EB1C456A1854F1000166
:1018800048BF7047B619524141EB0101A3F1010372
:10189000704795F0000F37D04FEA11424FEA1447D6
:1018A00021EA024624EA074C02FB07F106FB07F790
:1018B0000CFB06F402FB0CFC14EB074441EB174154
:1018C0004FEA154714EB0C4441EB1C4125EA074C49
:1018D00002FB07F506FB07F70CFB06F602FB0CFC08
:1018E00016EB074645EB174516EB0C4645EB1C423D
:1018F000121951F1000148BF7047B619524141EB2E
:101900000101A3F1010370474FEA14454FEA114763
:1019100024EA054621EA074C05FB07F106FB07F719
:101920000CFB06F24FF0000605FB0CFC12EB074225
:1019300041EB174112EB0C4251EB1C4148BF704781
:10194000921841EB0101A3F10103704770B5044601
:1019500000252946204603F0CBFE00BF204670BD7F
:1019600070B5044600252946204603F0C1FE00BF9D
:10197000204670BD21B1826842F00102826003E01E
:10198000826822F001028260704721B1826842F4CD
:101990008072826003E0826822F480728260704705
:1019A00010B504461248844208D10121401500F0C8
:1019B0002DFC0021601500F029FC17E00D48844241
:1019C00008D10121001500F021FC0021201500F0B4
:1019D0001DFC0BE00848844208D10121C80300F037
:1019E00015FC00214FF4004000F010FC10BD000079
:1019F0000024014000280140003C01400146002035
:101A00008A6802F004020AB1012000E00020704759
:101A1000014600208A6802F008020AB1012000E0B5
:101A20000020704730B502460020002350680F4C5C
:101A300020400D790C6844EA0524204350609068EA
:101A40000B4C2040D1E902542C434D7944EA450423
:101A500020439060D06A20F470000C7C641EE4B2D5
:101A6000234340EA0350D06230BD0000FFFEF0FF88
:101A7000FDF7F1FFF0B504460D4600200021092DC9
:101A800011DDE068A5F10A0606EB4607072606FA0F
:101A900007F18843A5F10A0606EB460603FA06F1AC
:101AA0000843E0600CE0206905EB4507072606FACD
:101AB00007F1884305EB450603FA06F10843206168
:101AC000072A0FDA606B561E06EB86071F2606FAFA
:101AD00007F18843561E06EB860605FA06F1084311
:101AE000606322E00D2A0FDA206BD61F06EB860713
:101AF0001F2606FA07F18843D61F06EB860605FA6D
:101B000006F10843206310E0E06AA2F10D0606EB3F
:101B100086071F2606FA07F18843A2F10D0606EB99
:101B2000860605FA06F10843E062F0BD816841F0DF
:101B300008018160704721B1826842F4A00282608E
:101B400003E0826822F4A00282607047816841F05D
:101B500004018160704700BFFEE721B9C26842F00E
:101B60002002C26003E0026942F020020261704775
:101B700021B1026842F00102026004E002684FF6FF
:101B8000FE731A400260704701684FF6FE72114002
:101B900001600021016041608160C1604B49884261
:101BA00008D14A490839496841F00F01474A083AC3
:101BB00051608AE045491431884208D143490839C7
:101BC000496841F0F001414A083A51607DE03F49DF
:101BD0002831884208D13D490839496841F470618B
:101BE0003A4A083A516070E038493C31884208D19D
:101BF00036490839496841F47041344A083A51601D
:101C000063E032495031884208D130490839496887
:101C100041F470212D4A083A516056E02B49643155
:101C2000884208D129490839496841F47001274A96
:101C3000083A516049E025497831884208D1234962
:101C40000839496841F07061204A083A51603CE027
:101C50001F49884206D1011F096841F00F01021F88
:101C6000116032E01A491431884208D11849091F1D
:101C7000096841F0F001164A121F116025E014496D
:101C80002831884208D11249091F096841F470615E
:101C90000F4A121F116018E00D493C31884208D1EB
:101CA0000B49091F096841F47041094A121F11606C
:101CB0000BE007495031884207D10549091F0968DF
:101CC00041F47021024A121F11607047080002405F
:101CD0000804024010B50022026847F6F0739A43E8
:101CE0000C6A8B6823430C6923434C6923438C693A
:101CF0002343CC6923434C6A23438C6A23431A430E
:101D00000260CB6843600B6883604B68C36010BDA2
:101D10007047000010B5012000F0FCF838B104490C
:101D20000868044909688847012000F0EDF810BDF3
:101D3000002900205C00002010B54FF4806000F006
:101D4000E9F840B12749886A2749096888474FF46C
:101D5000806000F0D9F84FF4006000F0DBF840B18B
:101D60002049C86A2049096888474FF4006000F09C
:101D7000CBF84FF4805000F0CDF840B11949086B12
:101D80001949096888474FF4805000F0BDF84FF4B6
:101D9000005000F0BFF840B11249486B1249096881
:101DA00088474FF4005000F0AFF84FF4804000F047
:101DB000B1F840B10B49886B0B49096888474FF46B
:101DC000804000F0A1F84FF4004000F0A3F840B1CB
:101DD0000449C86B0449096888474FF4004000F083
:101DE00093F810BD002900205C00002010B50220EF
:101DF00000F090F838B104494868044909688847F8
:101E0000022000F081F810BD002900205C000020B5
:101E100010B5042000F07EF838B104498868044900
:101E200009688847042000F06FF810BD00290020E1
:101E30005C00002010B5082000F06CF838B10449AF
:101E4000C868044909688847082000F05DF810BD9B
:101E5000002900205C00002010B5102000F05AF886
:101E600038B104490869044909688847102000F01E
:101E70004BF810BD002900205C00002010B5202088
:101E800000F048F838B11E4948691E49096888477A
:101E9000202000F039F8402000F03CF838B1184913
:101EA0008869184909688847402000F02DF880208B
:101EB00000F030F838B11249C869124909688847FA
:101EC000802000F021F84FF4807000F023F840B13A
:101ED0000B49086A0B49096888474FF4807000F085
:101EE00013F84FF4007000F015F840B10449486A47
:101EF0000449096888474FF4007000F005F810BDE8
:101F0000002900205C0000200149086070470000A3
:101F100014040140014600200022074B1B6803EA1D
:101F20000102054B14331B680B4013B10AB10120A9
:101F300000E0002070470000000401402DE9F0415E
:101F4000024600250026002000230024002791F8E7
:101F500003C00CF00F0591F803C00CF0100CBCF19D
:101F6000000F03D091F802C04CEA050591F800C0BB
:101F7000BCF1000F31D0146800202BE04FF0010CB1
:101F80000CFA00F3B1F800C00CEA03069E4220D11F
:101F900083004FF00F0C0CFA03F7BC4305FA03FC67
:101FA0004CEA040491F803C0BCF1280F06D14FF0AD
:101FB000010C0CFA00FCC2F814C00AE091F803C04E
:101FC000BCF1480F05D14FF0010C0CFA00FCC2F82F
:101FD00010C0401C0828D1D31460B1F800C0BCF177
:101FE000FF0F34DD546800202EE000F1080C4FF0A4
:101FF000010808FA0CF3B1F800C00CEA03069E428F
:1020000021D183004FF00F0C0CFA03F7BC4305FA03
:1020100003FC4CEA040491F803C0BCF1280F05D17D
:1020200000F1080C08FA0CF8C2F8148091F803C00B
:10203000BCF1480F07D100F1080C4FF0010808FA75
:102040000CF8C2F81080401C0828CED35460BDE8BC
:10205000F0810000F0B50A4600230024002100258D
:1020600000F00046B6F1004F02D11D4EF16901E0CB
:102070001B4E7168C0F3034583B200F44016B6F5F9
:10208000401F08D121F07061154E766826F0706609
:10209000134F7E6012E000F48016B6F5801F06D163
:1020A000032606FA05F4A14341F0706106E0460DEF
:1020B000360103FA06F6B14341F0706122B1460DD4
:1020C000360103FA06F6314300F00046B6F1004F40
:1020D00002D1034EF16101E0014E7160F0BD0000DC
:1020E0000000014000BFFEE700BFFEE770470000B0
:1020F00070B5002100230F22C47804B3154C246866
:1021000004F4E064C4F5E064210AC1F10403CA40A8
:10211000447804FA03F184781440214309010E4CF9
:102120000678A155047804F01F050124AC40057819
:102130006D11AD0005F1E025C5F8004109E0047816
:1021400004F01F050124AC40044D0678761145F8D3
:10215000264070BD0CED00E000E400E080E100E00E
:1021600002490143024A1160704700000000FA056D
:102170000CED00E001460020034A506820F4404086
:1021800008435060704700000010024029B1064A21
:1021900052690243044B5A6104E0034A5269824384
:1021A000014B5A61704700000010024029B1064AF5
:1021B000D2690243044BDA6104E0034AD2698243E4
:1021C000014BDA61704700000010024029B1064A55
:1021D00012690243044B1A6104E0034A1269824304
:1021E000014B1A61704700000010024029B1064AF5
:1021F00092690243044B9A6104E0034A9269824364
:10220000014B9A61704700000010024029B1064A54
:10221000D2680243044BDA6004E0034AD268824386
:10222000014BDA60704700000010024030B5002119
:102230000022002400232D4D6D6805F00C0121B112
:10224000042905D0082923D105E0294D056022E0A5
:10225000274D05601FE0254D6D6805F47012234D74
:102260006D6805F48034022505EB92421CB9214DBE
:10227000554305600BE01D4D6D6805F400351DB13B
:102280001C4D5543056002E0194D5543056002E0C1
:10229000174D056000BF00BF144D6D6805F0F001DB
:1022A0000909154D6B5C0568DD4045600F4D6D6893
:1022B00005F4E061090A104D6B5C4568DD408560FE
:1022C0000A4D6D6805F46051C90A0B4D6B5C456899
:1022D000DD40C560054D6D6805F44041890B074D33
:1022E0006B5CC568B5FBF3F5056130BD00100240BD
:1022F00000127A0000093D00140000202400002094
:10230000024909888143014A11807047042800402E
:1023100001460020064A12880A40D0B2044A121F21
:1023200012880A4012B108B1012000E00020704775
:102330000428004010B50120FFF7EAFF40B100215A
:1023400011480068114A126890470120FFF7D8FF32
:102350000220FFF7DDFF40B101210B4800680B4A66
:10236000126890470220FFF7CBFF0420FFF7D0FF51
:1023700040B1022104480068044A126890470420D2
:10238000FFF7BEFF10BD00006000002064000020C9
:1023900021B1028842F04002028004E002884FF638
:1023A000BF731A400280704710B50446114884423A
:1023B00008D101218014FFF729FF0021A014FFF7A5
:1023C00025FF16E00C48844208D101210014FFF7D4
:1023D000FDFE00212014FFF7F9FE0AE007488442C1
:1023E00007D10121C013FFF7F1FE0021E013FFF731
:1023F000EDFE10BD0030014000380040003C0040C0
:1024000010B50022028802F441520B884C88234305
:102410008C882343CC8823430C8923434C89234352
:102420008C892343CC8923431A430280838B4FF248
:10243000FF74234083830B8A038210BD10B500F024
:1024400001F810BD0CB500200190009033480068E1
:1024500040F480303149086000BF3048006800F423
:10246000003000900198401C0190009818B9019824
:10247000B0F5A06FF1D12948006800F4003010B128
:102480000120009001E0002000900098012843D135
:102490002348006840F010002149086008460068A1
:1024A00020F0030008600846006840F00200086061
:1024B0001A4840681949486008464068486008461C
:1024C000406840F4806048600846406820F47C1012
:1024D00048600846406840F4E810486008460068D4
:1024E00040F08070086000BF0C48006800F0007089
:1024F0000028F9D00948406820F0030007494860E7
:102500000846406840F00200486000BF0348406849
:1025100000F00C000828F9D10CBD000000100240AA
:1025200000200240042808D14FF0E021096941F061
:1025300004014FF0E022116107E04FF0E02109694A
:1025400021F004014FF0E0221161704710B50E48F0
:1025500002684068521C40F100000B490A60486064
:102560000A480288002308684968FDF78FFE0021A9
:102570004A404B401A4305D10548006810B1044950
:102580000868804710BD0000280000203A000020A5
:102590003400002010B5002100200022214B5B6890
:1025A00003F00C0121B1042906D0082928D107E045
:1025B0001D4B1E4C236027E01B4B1C4C236023E06B
:1025C000184B5B6803F47010164B5B6803F48032A1
:1025D000022303EB904022B9154B4343134C236075
:1025E0000DE0104B5B6803F4003323B1104B434301
:1025F0000E4C236003E00C4B43430C4C236003E080
:10260000094B0A4C236000BF00BF064B5B68C3F355
:102610000313084CE15C054B1B68CB40034C236063
:1026200010BD00000010024000127A0000000020DF
:1026300000093D000400002010B51348006840F078
:1026400001001149086008464068104908400E49D9
:102650004860084600680E4908400B490860084673
:10266000006820F4802008600846406820F4FE00DE
:1026700048604FF41F008860FFF7E0FE4FF00060F5
:102680000449086010BD0000001002400000FFF87F
:10269000FFFFF6FE08ED00E010B50121224800F032
:1026A00039FA01280BD121480088401C1F490880B5
:1026B000002002F0D7FF01211B4800F027F902217A
:1026C000194800F027FA012806D1072002F0CAFFB6
:1026D0000221154800F01AF90421134800F01AFAF3
:1026E000012806D1082002F0BDFF04210E4800F0A9
:1026F0000DF908210C4800F00DFA012806D1092037
:1027000002F0B0FF0821084800F000F91021064847
:1027100000F000FA012806D10A2002F0A3FF1021E0
:10272000014800F0F3F810BD002C014080000020AB
:1027300010B50121880700F0EDF901280BD12048E0
:102740000088401C1E490880012002F08BFF0121F7
:10275000880700F0DBF80221480700F0DBF90128C8
:1027600006D10B2002F07EFF0221480700F0CEF8D0
:102770000421080700F0CEF9012806D10C2002F050
:1027800071FF0421080700F0C1F80821C80600F015
:10279000C1F9012806D10D2002F064FF0821C80606
:1027A00000F0B4F81021880600F0B4F9012806D131
:1027B0000E2002F057FF1021880600F0A7F810BD88
:1027C0008200002010B50121224800F0A3F9012861
:1027D0000BD121480088401C1F490880022002F0CC
:1027E00041FF01211B4800F091F80221194800F037
:1027F00091F9012806D10F2002F034FF0221480789
:1028000000F084F80421134800F084F9012806D16F
:10281000102002F027FF04210E4800F077F808216D
:102820000C4800F077F9012806D1112002F01AFFB8
:102830000821084800F06AF81021064800F06AF9FB
:10284000012806D1122002F00DFF1021014800F0EE
:102850005DF810BD000400408400002010B5012187
:10286000224800F057F901280BD121480088401C6C
:102870001F490880032002F0F5FE01211B4800F0EB
:1028800045F80221194800F045F9012806D1132026
:1028900002F0E8FE0221154800F038F80421134840
:1028A00000F038F9012806D1142002F0DBFE0421E3
:1028B0000E4800F02BF808210C4800F02BF90128F5
:1028C00006D1152002F0CEFE0821084800F01EF8BF
:1028D0001021064800F01EF9012806D1162002F04A
:1028E000C1FE1021014800F011F810BD00080040A1
:1028F0008600002021B1028842F08002028004E0BC
:1029000002884FF67F731A4002807047CA430282E2
:10291000704721B1028842F00102028004E002887F
:102920004FF6FE731A4002807047000010B504464F
:102930006848844208D10121C014FFF767FC0021D8
:10294000E014FFF763FCC4E0B4F1804F08D101212B
:102950000846FFF73BFC00210120FFF737FCB8E0F9
:102960005D48844208D101210220FFF72FFC00219D
:102970000220FFF72BFCACE05848844208D101212B
:102980000420FFF723FC00210420FFF71FFCA0E038
:102990005348844208D101210820FFF717FC002189
:1029A0000820FFF713FC94E04E48844208D101212F
:1029B0001020FFF70BFC00211020FFF707FC88E038
:1029C0004948844208D101212020FFF7FFFB002164
:1029D0002020FFF7FBFB7CE04448844208D1012122
:1029E0004014FFF713FC00216014FFF70FFC70E0A8
:1029F0003F48844209D10121C804FFF707FC0021A8
:102A00004FF40020FFF702FC63E03A48844209D10A
:102A100001210805FFF7FAFB00214FF48010FFF7B2
:102A2000F5FB56E03448844209D101214805FFF7FF
:102A3000EDFB00214FF40010FFF7E8FB49E02F48C1
:102A4000844208D101214020FFF7C0FB0021402033
:102A5000FFF7BCFB3DE02A48844208D101218020D9
:102A6000FFF7B4FB00218020FFF7B0FB31E02548E1
:102A7000844208D101218015FFF7A8FB0021A01591
:102A8000FFF7A4FB25E02048844209D10121080476
:102A9000FFF7BCFB00214FF48030FFF7B7FB18E0D5
:102AA0001A48844209D101214804FFF7AFFB0021F5
:102AB0004FF40030FFF7AAFB0BE01548844208D121
:102AC00001218804FFF7A2FB00214FF48020FFF7CB
:102AD0009DFB10BD002C0140000400400008004098
:102AE000000C004000100040001400400034014081
:102AF000004C0140005001400054014000180040CB
:102B0000001C004000200040004001400044014003
:102B10000048014030B50246002000230024158AF9
:102B200005EA0103958905EA010413B10CB10120FE
:102B300000E0002030BD1AB183890B43838102E09D
:102B400083898B438381704701894FF6F872114066
:102B500001817047002202881D4B98420ED01D4B08
:102B600098420BD0B0F1804F08D01B4B984205D053
:102B70001A4B984202D01A4B984204D14FF68F73E9
:102B80001A404B881A43174B984207D0164B98426D
:102B900004D04FF6FF431A40CB881A4302808B883B
:102BA00083850B8803850A4B98420BD0094B9842CA
:102BB00008D00E4B984205D00D4B984202D00D4BD9
:102BC000984201D10B7A038601238382704700006B
:102BD000002C014000340140000400400008004087
:102BE000000C004000100040001400400040014074
:102BF000004401400048014010B540F225511348FF
:102C000000F0CAF801280AD1114908680021114AC8
:102C10001268904740F225510C4800F08CF840F2C1
:102C200026610A4800F0B8F801280DD100200A49B1
:102C30000870074908680121064A1268904740F267
:102C40002661024800F077F810BD0000003801400E
:102C500088290020700000206800002010B540F294
:102C60002551134800F098F801280AD11149486805
:102C70000021114A1268904740F225510C4800F09B
:102C80005AF840F226610A4800F086F801280DD172
:102C900000200A494870074948680121064A12681D
:102CA000904740F22661024800F045F810BD000050
:102CB00000440040882900207000002068000020A7
:102CC00010B540F22551134800F066F801280AD1EA
:102CD000114988680021114A1268904740F2255135
:102CE0000C4800F028F840F226610A4800F054F839
:102CF00001280DD100200A49887007498868012100
:102D0000064A1268904740F22661024800F013F824
:102D100010BD0000004800408829002070000020FD
:102D20006800002001F40072B2F5007F00D100BFFE
:102D3000CA430280704710B50022002340F66A148F
:102D4000A14200D100BF0A1201249440A3B2DC4387
:102D5000048010BD21B1828942F40052828104E0D6
:102D600082894DF6FF731A40828170471AB1838AB7
:102D70000B43838202E0838A8B438382704702463F
:102D80000020B1F5007F00D100BF13880B400BB1CC
:102D9000012000E00020704770B5024600240023A7
:102DA0000025002040F66A16B14200D100BFC1F3F1
:102DB000421501F01F03012606FA03F3012D02D18B
:102DC0009689334006E0022D02D1168A334001E095
:102DD000968A33400C12012606FA04F41688344011
:102DE00013B10CB1012000E0002070BDF0B5034626
:102DF000002400260025002040F66A17B94200D1C1
:102E000000BF1846C1F3421401F01F06012707FA5C
:102E100006F5012C01D10C3004E0022C01D1103058
:102E200000E014301AB107682F43076002E007681A
:102E3000AF430760F0BD00002DE9F04786B00546BE
:102E40000E460024A24600BFA1460027B08900B16B
:102E500000BF2F462C8A4CF6FF700440F0880443D4
:102E60002C82AC894EF6F3100440B08831890843B7
:102E7000718908430443AC81AC8A4FF6FF4004409B
:102E8000B0890443AC8201A8FFF7D0F91F488742FC
:102E900002D1DDF810A001E0DDF80CA0A88900F453
:102EA000004040B10AEBCA0000EB0A10316849004B
:102EB000B0FBF1F807E00AEBCA0000EB0A1031683A
:102EC0008900B0FBF1F86420B8FBF0F004012009A0
:102ED000642101FB1089A88900F4004040B1322030
:102EE00000EBC900B0FBF1F000F00700044308E07C
:102EF000322000EB09106421B0FBF1F000F00F006C
:102F000004432C8106B0BDE8F08700000038014082
:102F1000C1F308028280704710B505480068054972
:102F20000968884700210448FEF717FE10BD00001D
:102F300074000020780000200064004000BFFEE71D
:102F400010B504462046FDF75BFB10BD094801683B
:102F5000094801620748001D01680748C16105482A
:102F6000083000680449886102480838008888846D
:102F700070470000E8F7FF1FB000002010B586B0D2
:102F80000446FFF707FB01A8FFF750F901986060BE
:102F90000298A0600498E0600398206106B010BD1C
:102FA00000B58BB00F48FEF7EFFD0F4800900F48BB
:102FB00001900020029010200390002004908020B7
:102FC00005904000069080000790202008900002A5
:102FD000099000200A9069460248FEF77BFE0BB07C
:102FE00000BD0000080002404C240140E028002001
:102FF00000B585B04848FEF7D3FC002000900120C2
:103000008DF804008DF805004FF460200290002038
:10301000039010208DF8100069463F48FEF702FD2E
:103020000323012200213C48FEF724FD0323022252
:1030300001213948FEF71EFD03231A4602213648B6
:10304000FEF718FD0323042219463348FEF712FD4C
:103050000323052204213048FEF70CFD032306223A
:1030600005212D48FEF706FD0323072206212A48E5
:10307000FEF700FD0323082207212748FEF7FAFC8C
:103080000323092208212448FEF7F4FC03230A2223
:1030900009212148FEF7EEFC03230B220A211E48DA
:1030A000FEF7E8FC03230C220B211B48FEF7E2FC91
:1030B00003230D220C211848FEF7DCFC03230E220B
:1030C0000D211548FEF7D6FC03230F220E211248CE
:1030D000FEF7D0FC032310220F210F48FEF7CAFC95
:1030E00001210D48FEF751FC01210B48FEF742FC7F
:1030F0000948FEF71BFD00BF0748FEF789FC0028C2
:10310000FAD10548FEF722FD00BF0348FEF776FC22
:103110000028FAD105B000BD00240140012001497A
:1031200008707047AB00002010B501200B490870F3
:103130000B4800F025FF002004E00A49095C0A4A18
:103140001154401C094909788842F6DD0748007887
:103150000749087000200549087010BDAC00002028
:10316000D0320020F03A0020F03C0020A8000020DF
:10317000A900002008B501F0B5FF01224FF4E131AC
:103180001E4800F080FB00221D491C4800F0DCFCBA
:1031900000200346012201460090184800F04EFD31
:1031A00018A1164800F0DFFC02211F4801F018FAB0
:1031B0001E4801F03DF81E4800F0D6F801211D48D8
:1031C00000F0E6FE1C491B4800F047FF00231A46AA
:1031D0000121184800F0C0FF164800F037FF6421B5
:1031E000164800F0D5FE1649144800F036FF0023BB
:1031F0001A460121114800F0AFFF08BD482F0020FA
:10320000453200082D2D2D2D2D2D2D2D2D2D2D2D23
:103210002D2D2D2D2D2D2D2D2D2D2D2D2D2D2D2DDE
:103220002D2D2D0D0A000000883100209C32002039
:1032300098000020B03200201D310008D03200205C
:103240002931000810B50A4800F000FF094800F0D5
:1032500014FBC4B208480078C82803DA07480649B6
:103260000978445404480078401C0349087010BD94
:10327000D0320020482F0020A8000020F03A002083
:1032800010B501214802FEF7B1FF4FF40040FEF7F0
:1032900071FF01210846FEF779FFFFF7A9FEFFF74E
:1032A0007FFE01210348FEF746FC01210248FEF79C
:1032B0005FFC10BD002401400800024030B5B3B0EF
:1032C00005460C46002003E0295C01AA1154401C6D
:1032D000A042F9DB224601A9084801F0FBF90322CC
:1032E0000521064801F030F900220621034801F0CB
:1032F0002BF9024801F0AAF833B030BD8831002024
:103300002DE9F04104460E46174604F110054FF032
:1033100000084146284602F0EBF900BFA5F1100471
:103320006660A7602046BDE8F08110B500240474F3
:1033300001608260436010BD10B50446207918B169
:10334000206800F03DF902E0206800F01DFA10BD91
:1033500010B50446207918B1206800F015FA02E093
:10336000206800F02DF910BD10B50446102120682A
:1033700000F02AF910BD016002717047014608781B
:10338000704770B504460D4603E00120002101F0AE
:1033900084FE207A012805D12046FFF7EFFF297827
:1033A0008842F2D12046FFF7E9FF2978884203D10D
:1033B00001202072002070BD2946204600F05CF8F4
:1033C000012020720020F6E70146002008727047B5
:1033D000014600BF4868008900F002000028F9D0CB
:1033E000FF204A68908100BF4868008900F0010012
:1033F0000028F9D048688089C0B2704770B504468B
:103400000D460E496068884203D101218014FEF701
:10341000EDFE0B496068884203D101210014FEF7DC
:10342000C5FE08496068884203D10121C013FEF738
:10343000BDFE2946204600F01FF870BD0030014057
:1034400000380040003C004008B5024600BF50680C
:10345000008900F002000028F9D05068818100BF87
:103460005068008900F001000028F9D05068808978
:10347000C0B20090002008BD30B585B005460C46AE
:103480002078287000216868FEF782FF6868FEF7E0
:103490008BFF0020ADF80000ADF804004FF4007081
:1034A000ADF80A000720ADF810004FF48270ADF8B7
:1034B0000200607828B90020ADF80600ADF80800D9
:1034C0001BE06078012806D10020ADF8060001203D
:1034D000ADF8080011E06078022805D1ADF80600CB
:1034E0000020ADF8080008E06078032805D102202C
:1034F000ADF806000120ADF80800A078082825D214
:10350000DFE800F004080C1014181C200020ADF8AF
:103510000C001FE00820ADF80C001BE01020ADF8F7
:103520000C0017E01820ADF80C0013E02020ADF8D7
:103530000C000FE02820ADF80C000BE03020ADF8B7
:103540000C0007E03820ADF80C0003E03820ADF89F
:103550000C0000BF00BFE07828B1012807D100208F
:10356000ADF80E0007E08020ADF80E0003E000206B
:10357000ADF80E0000BF00BF69466868FEF740FF67
:1035800001216868FEF704FF05B030BD2DE9F04168
:1035900004460D4616461F46DDF8188000202072AE
:1035A00065606021304600F00FF86021384600F079
:1035B0000BF86021404600F007F82046BDE8F08196
:1035C000018942681161704738B504460D46674A63
:1035D0006068811A904223D009DC6549084480B1B3
:1035E000B0F5806F12D0B0F5006F2DD113E0B1F5BA
:1035F000806F1AD0B1F5006F1CD0B1F5406F23D1A8
:103600001DE001210420FEF7F1FD1DE0012108204D
:10361000FEF7ECFD18E001211020FEF7E7FD13E0B6
:1036200001212020FEF7E2FD0EE001214020FEF7FF
:10363000DDFD09E001218020FEF7D8FD04E0012135
:103640000802FEF7D3FD00BF00BF412D2CD012DCD5
:10365000212D35D008DC102D3AD0112D3CD0122D63
:103660003ED0202D71D127E0222D2DD0302D13D02A
:10367000402D6AD114E0522D46D006DC422D17D0E1
:10368000502D31D0512D60D136E0602D44D0612DC8
:103690004AD0622D59D14FE000208DF8030058E048
:1036A00004208DF8030054E028208DF8030050E03A
:1036B00048208DF803004CE014208DF8030048E00A
:1036C00014208DF8030044E014208DF8030040E03E
:1036D00010208DF803003CE010208DF8030038E046
:1036E00010208DF8030034E001210846FEF77EFD2E
:1036F0001C208DF803002CE001210846FEF776FD22
:103700001C208DF8030024E001210846FEF76EFD21
:103710001C208DF803001CE001210846FEF766FD21
:1037200018208DF8030014E001210846FEF75EFD25
:1037300018208DF803000CE001210846FEF756FD25
:1037400018208DF8030004E0FFE704208DF8030043
:1037500000BF00BF2089ADF8000003208DF80200F3
:1037600069466068FEF7EAFB38BD000000140140BE
:1037700000F8FEBF0146486880680A89104008B119
:10378000012070470020FCE70189426851617047C1
:1037900070B50B461446436004811C4E9A1BB3421D
:1037A0001AD009DC1A4A1A4482B1B2F5806F0FD0E0
:1037B000B2F5006F18D10DE0B2F5806F0ED0B2F502
:1037C000006F0DD0B2F5406F0ED10BE000210DE07F
:1037D00001210BE0022109E0032107E0042105E0BB
:1037E000052103E0062101E0002100BF00BF002207
:1037F00006E00689164116B9561EF5B202E0521CC3
:103800000F2AF6DD05EB0112027070BD00140140B5
:1038100000F8FEBF2DE9F04105460E462F4606EBA7
:10382000460107F1180000EBC104606920B9206867
:1038300010B12068804709E0606930B1206820B18C
:10384000211D62692068904700E000BFBDE8F0815B
:1038500070B504460E461546E068FEF795F9A06877
:10386000001DE1688860E068C660E068456042F27B
:103870009900E1680860284670BD01468868808824
:10388000C0F3080070477CB505460E4614464FF05D
:103890007E50002308223146CDE90004284600F07E
:1038A00001F87CBD2DE9F04F85B004460E469146E7
:1038B0009A46DDF83CB084F814B0207D012803D18D
:1038C00001210846FEF762FC704AA068811A904206
:1038D00027D006DC6E49084488B1B0F5806F2CD142
:1038E00016E0B1F5806F22D0B1F56C4F25D10121E2
:1038F0008803FEF77BFC6748E06000251DE001219E
:103900004804FEF753FC63483C30E060012514E0B6
:1039100001218804FEF74AFC5E482838E060022551
:103920000BE00121C804FEF741FC032505E001215D
:103930000805FEF73BFC042500BF00BF22465649A0
:10394000284601F077FE0196B9F1080F03D0B9F1CE
:10395000090F09D103E00020ADF8080008E04FF49A
:103960008050ADF8080003E00020ADF8080000BF6B
:1039700000BFBAF1000F06D0BAF1010F07D0BAF1BB
:10398000020F0ED108E00020ADF80C000DE04FF45E
:103990008060ADF80C0008E04FF4C060ADF80C009A
:1039A00003E00020ADF80C0000BF00BF0E9801F04E
:1039B0003FFF07460022394B01F0AAFE04D14FF425
:1039C0008050ADF80A0021E04FF07E510E9801F0D2
:1039D00067FF03D10020ADF80A0017E00E9801F050
:1039E00027FF074600222E4B01F092FE04D14FF430
:1039F0004050ADF80A0009E04FF080410E9801F008
:103A00004FFF03D14FF40050ADF80A000020ADF88D
:103A100010000C20ADF80E0001A9A068FFF70CFA09
:103A20002049A068884208D019494942A0688842C4
:103A300003D01D49A068884207D1207D012804D108
:103A400001228021A068FFF791F90121A068FFF70A
:103A500081F900200346024601460090204600F00E
:103A6000EDF800200346024601210090204600F0B8
:103A7000E5F840F22661A068FFF75DF940210448AF
:103A80004042FFF74FF905B0BDE8F08F004C004011
:103A900000BCFFBF44000240153800080000E03FB2
:103AA0000000F83F003801400048004070B504466F
:103AB0000D4600BF8021A068FFF761F90028F9D00A
:103AC0002946A068FFF724FA012070BD70B50446AE
:103AD0000D4616461949A068884201D1012000E030
:103AE0000020174AA168914201D1012100E0002184
:103AF0000843144AA168914201D1012100E000214C
:103B0000084340B1207D012805D132462946204690
:103B1000FFF79EFE11E00BE000BF8021A068FFF7D9
:103B20002EF90028F9D015F8011BA068FFF7F0F96D
:103B3000301EA6F101018EB2EED170BD00380140F9
:103B4000004400400048004070B504460D4616464B
:103B500045B106EB460204F1180101EBC20029460B
:103B600001F0C6FD70BD0FB4F8B5044600254FF452
:103B70008076204600F0DEF8206910B1206901F05F
:103B8000A9FA204600F02AF808A8009000BF3046A5
:103B900001F032FB2061206910B9F8BC5DF814FB1C
:103BA00020693146009B079AFCF7E8FB0546681C34
:103BB00008B1B54205D980364FF0FF35206901F0D4
:103BC00089FA681C0028E2D000200090AAB22046A2
:103BD0002169FFF77BFF00BFDFE70000144B81681E
:103BE000CA1A994219D006DC124A114469B1B1F5DA
:103BF000806F1AD10DE0B2F5806F12D0B2F56C4F24
:103C000013D101210C4A11700FE001210A4A5170B1
:103C10000BE00121084A917007E00121064AD170AA
:103C200003E00121044A117100BF00BF704700008A
:103C3000004C004000BCFFBF680000202DE9F843A5
:103C400006460F4690461C46089D042C00DD0424C1
:103C5000042D00DD042540F22661B068FFF76BF803
:103C600040213148FFF75EF8304AB068811A90422F
:103C70002ED006DC2E490844A0B1B0F5806F3DD1AE
:103C80001BE0B1F5806F2ED0B1F56C4F36D12520F9
:103C90008DF800008DF801408DF8025001208DF85C
:103CA00003002BE026208DF800008DF801408DF8F0
:103CB000025001208DF8030020E027208DF800003D
:103CC0008DF801408DF8025001208DF8030015E0B9
:103CD00034208DF800008DF801408DF8025001204D
:103CE0008DF803000AE035208DF800008DF80140C2
:103CF0008DF8025001208DF8030000BF00BF684618
:103D0000FEF7F6F92FB9424640F22551B068FFF7A9
:103D10006DF8012F05D1012240F22661B068FFF74E
:103D200065F8BDE8F883000000440040004C004006
:103D300000BCFFBF70B5044601F076FC0546544A4E
:103D4000A068811A904266D006DC5249084430B31C
:103D5000B0F5806F22D141E0B1F5806F79D0B1F537
:103D60006C4FF7D115E040F226614B48FFF714F88D
:103D700001280ED1002049490870494908680121ED
:103D8000484A1268904740F226614348FEF7D3FF45
:103D900003E0424800780128E5D000BF76E017E054
:103DA00040F226613B484042FEF7F6FF01280FD162
:103DB00000203A4948703A4948680121394A126856
:103DC000904740F2266133484042FEF7B4FF03E0DB
:103DD000324840780128E3D000BF57E015E040F2B8
:103DE00026613148FEF7D8FF01280ED100202B496B
:103DF00088702B49886801212A4A1268904740F24E
:103E000026612948FEF797FF03E0244880780128BF
:103E1000E5D000BF3AE016E040F226611C48FEF70C
:103E2000BBFF01280FD100201C49C8701C49C8687D
:103E300001211C4A1268904740F226611448FEF79F
:103E40007AFF04E005E01548C0780128E4D000BFFF
:103E50001CE015E040F226611448FEF79DFF0128A2
:103E60000ED100200D4908710D49086901210D4A44
:103E70001268904740F226610C48FEF75CFF03E0B1
:103E8000064800790128E5D000BF00BF00BF70BD23
:103E9000004C004000BCFFBF00380140680000201B
:103EA0008829002070000020004800400050004099
:103EB0002DE9F04104460D4616461F4620460D49A1
:103EC000216000BF04460C482060022318220B49E1
:103ED00004F1180000F069FCA0F11804A56060214D
:103EE0003046FFF771FB40213846FFF76DFB204657
:103EF000BDE8F081885A0008785A00086119000866
:103F000010B50446204600F01DF84FF4C871B0FB10
:103F1000F1F010BD70B505462E4606F10804606943
:103F200020B9206810B12068804709E0606930B18D
:103F3000206820B1211D62692068904700E000BF21
:103F400070BD000010B5014600220020094C0B682E
:103F5000A34202D1084B18690AE0084B5A6802F4E0
:103F600080631BB1044B5B69580001E0024B586948
:103F700010BD0000002C0140B000002000100240E5
:103F800010B5044600212068FEF7C3FC10BD0000F8
:103F90002DE9F04106460F464FF000080125304656
:103FA000FFF7AEFFB84203D83046FFF7A9FF074638
:103FB0000CE03046FFF7C6FFB0FBF5F0B0FBF7F8BA
:103FC0004FF6FF70804500D803E06D1CB5F5803FCB
:103FD000EFD300BFAAB21FFA88F1304600F048F8CC
:103FE000174A3068811A90421BD009DCB0F1804F2B
:103FF00011D01449084480B1B0F5806F17D10EE09C
:10400000B1F5806F0FD0B1F5006F0ED0B1F5903FD4
:104010000DD100240BE0012409E0022407E0032471
:1040200005E0042403E0052401E0062400BF00BFEE
:1040300032460549204601F023FBBDE8F08100002F
:10404000000C004000FCFFBF153F000810B50446FF
:1040500001212068FEF75DFC10BD70B505460C46D9
:1040600024B1214605F1080001F042FB70BD0000BB
:10407000FEB504460D4616462068FEF757FC344A46
:104080002068811A904232D009DCB0F1804F19D0FB
:1040900030490844E8B1B0F5806F3DD120E0B1F57A
:1040A000806F2BD0B1F5006F2FD0B1F5903F33D199
:1040B0000121C802FEF79AF800208DF808001920A7
:1040C000207129E001210846FEF770F81C202071BC
:1040D00022E001210220FEF769F81D2020711BE07B
:1040E00001210420FEF762F81E20207114E0012156
:1040F0000820FEF75BF8322020710DE0012110202E
:10410000FEF754F83620207106E001212020FEF74A
:104110004DF83720207100BF00BF2068FEF714FD66
:10412000681E80B2ADF80400701E80B2ADF80000C9
:104130000020ADF802004FF40070ADF806006946AB
:104140002068FEF707FD01212068FEF7D3FBFEBDC6
:10415000000C004000FCFFBFF8B504460F461546B2
:104160001E46042D00DD0425042E00DD04262079E2
:104170008DF800008DF801508DF8026001208DF857
:1041800003006846FDF7B4FF01212068FEF7BEFB7F
:104190003A4601212068FEF7CEFCF8BD2DE9F0413A
:1041A00004460E4604F1080500273946284601F06A
:1041B0009FFA00BFA5F1080426602046BDE8F08103
:1041C00010B5044601F030FA174908602068FFF77F
:1041D000D1FA16490870207938B90846007808B92C
:1041E000012000E00020114908706079A0710F489B
:1041F000007860710C480068E0606079A1798842BD
:104200000DD0207A012804D10020207260726079DC
:1042100010BD0548006820610120E07101E0002028
:10422000E0716079F4E70000880000208C00002035
:1042300010B50446207920B142212068FFF7C4F967
:1042400003E041212068FFF7BFF9207928B96079A0
:1042500008B9012000E00020607101F0E5F9E0609C
:104260006079A0710020E071E068206110BD014616
:10427000487928B1C87918B10020C8710120704769
:104280000020FCE7016002714271704710B50446DE
:1042900057227521204600F057F90022762120464A
:1042A00000F052F900227721204600F04DF900225B
:1042B0007921204600F048F900227A21204600F0BA
:1042C00043F94E226E21204600F03EF9A5226F21CF
:1042D000204600F039F92C227021204600F034F9F4
:1042E00005226D21204600F02FF930227221204650
:1042F00000F02AF91E221C21204600F025F9D022C8
:104300002021204600F020F900222121204600F043
:104310001BF99D222221204600F016F94922232173
:10432000204600F011F900222421204600F00CF96B
:1043300024222521204600F007F940221D21204695
:1043400000F002F90A221E21204600F0FDF820228A
:104350002A21204600F0F8F82A223521204600F0D4
:10436000F3F8C8223421204600F0EEF8022233216F
:10437000204600F0E9F820223621204600F0E4F83B
:10438000D4223721204600F0DFF8202238212046B1
:1043900000F0DAF8D4223921204600F0D5F889223D
:1043A0003021204600F0D0F800223221204600F0D3
:1043B000CBF863227121204600F0C6F80A227D2145
:1043C000204600F0C1F832227E21204600F0BCF8E1
:1043D00012220B21204600F0B7F815220C212046AE
:1043E00000F0B2F8D7220921204600F0ADF8F02203
:1043F0006021204600F0A8F800221421204600F099
:10440000A3F820221521204600F09EF80122162153
:10441000204600F099F828221921204600F094F84F
:1044200020220721204600F08FF804220821204690
:1044300000F08AF812220521204600F085F80022BB
:104440000621204600F080F810BD000010B504469B
:104450000321204600F058F80B490870042120463B
:1044600000F052F80949087002220E21204600F09F
:104470006BF805220721204600F066F8022205218C
:10448000204600F061F810BD8D0000208E00002055
:1044900010B504460321204600F036F8094908709B
:1044A0000421204600F030F80749087001220E214F
:1044B000204600F049F809220721204600F044F880
:1044C00010BD00008D0000208E00002010B50446B5
:1044D00001220721204600F037F800220E21204655
:1044E00000F032F80321204600F00EF8044908706D
:1044F0000421204600F008F80249087010BD0000B1
:104500008D0000208E00002070B504460D4604F595
:104510008071D4F81001FEF734FF04F5867420682A
:10452000FFF732F929466068FEF78EFF6068FEF7F4
:104530004FFF06462068FFF743F86068A4F58674CD
:10454000FEF742FF304670BD70B504460D46164674
:1045500004F58071D4F81001FEF713FF04F586749A
:104560002068FFF711F945F080016068FEF76CFFE5
:1045700031466068FEF768FF2068FFF721F8606841
:10458000A4F58674FEF720FF012070BD2DE9F041EF
:1045900007460E461148007800F0010010B1384679
:1045A00000F049F80D48007800F00200022811D10F
:1045B0004B213846FFF7A8FF0546402D0ADC0024B2
:1045C00006E07F213846FFF79FFF3055601CC4B2DC
:1045D000AC42F6DB2846BDE8F08100008D000020EB
:1045E00070B504460D4684F80051002140F20110D8
:1045F00001550121401C0155401C015504F58071F5
:10460000D4F81001FEF7FAFE04F582741021A068B8
:10461000FEF7DAFFA068FEF7D3FF10216068FEF70F
:10462000D3FF6068FEF7CCFF2068A4F582744221B6
:10463000FEF7CAFF70BD10B50446022208212046CD
:10464000FFF782FF002208212046FFF77DFF10BD03
:1046500010B50446D4F80801FFF796F81E20002193
:1046600000F01BFDCA220B212046FFF76DFFCA2276
:104670000C212046FFF768FFCA220D212046FFF7D4
:1046800063FF03212046FFF73FFF10490870042114
:104690002046FFF739FF0E49087080220721204687
:1046A000FFF752FF00BFD4F80401FFF763F80028BA
:1046B000F9D103212046FFF727FF044908700421A0
:1046C0002046FFF721FF0249087010BD8D00002031
:1046D0008E0000202DE9F04105460E46174628467B
:1046E000FFF7F4FE3A463E212846FFF72DFF00244F
:1046F00006E0325D7F212846FFF726FF601CC4B22A
:10470000BC42F6DB042205212846FFF71DFF0022EC
:1047100006212846FFF718FF2846FFF7B9FE00BF1D
:10472000D5F80401FFF726F80028F9D1032128461F
:10473000FFF7EAFE0449087004212846FFF7E4FE6B
:1047400002490870BDE8F0818D0000208E00002035
:1047500010B50446D4F80401FFF70CF810BD10B5ED
:10476000029CC0F80411C0F80821C0F80C31C0F850
:10477000104110BD4160026070470160826043607B
:104780007047490050EAC12018BF04204A0D18BFE5
:1047900040F0010040F2FF72B2EB515F08BF40F001
:1047A0000200012808BF052070472DE9F0411C4692
:1047B00017460E00804607D0054602E02846B0475F
:1047C0003D442046641EF9D24046BDE8F081000019
:1047D00008B50122FD49FE48FEF7DAFF0222FB4937
:1047E000FC48FEF7D5FF0422F849FB48FEF7D0FF4E
:1047F0000822F649F948FEF7CBFF1022F349F848A2
:10480000FEF7C6FF2022F149F648FEF7C1FF40221D
:10481000EE49F548FEF7BCFF8022EC49F348FEF76D
:10482000B7FF4FF48072E949F148FEF7B1FF4FF44A
:104830000072E649EF48FEF7ABFF4FF48062E349B0
:10484000ED48FEF7A5FF4FF40062E049EB48FEF7A4
:104850009FFF4FF48052DD49E948FEF799FF4FF47E
:104860000052DA49E748FEF793FF4FF48042D749F8
:10487000E548FEF78DFF4FF40042D449E348FEF7C8
:1048800087FF0122E249E348FEF782FF0222E04966
:10489000E148FEF77DFF0422DD49E048FEF778FF9E
:1048A0000822DB49DE48FEF773FF1022D849DD48B5
:1048B000FEF76EFF2022D649DB48FEF769FF402253
:1048C000D349DA48FEF764FF8022D149D848FEF781
:1048D0005FFF4FF48072CE49D648FEF759FF4FF480
:1048E0000072CB49D448FEF753FF4FF48062C849A9
:1048F000D248FEF74DFF4FF40062C549D048FEF79D
:1049000047FF4FF48052C249CE48FEF741FF4FF4B3
:104910000052BF49CC48FEF73BFF4FF48042BC49F0
:10492000CA48FEF735FF4FF40042B949C848FEF7C0
:104930002FFF0122C749C848FEF72AFF0222C549B6
:10494000C648FEF725FF0422C249C548FEF720FFEE
:104950000822C049C348FEF71BFF1022BD49C248C8
:10496000FEF716FF2022BB49C048FEF711FF402288
:10497000B849BF48FEF70CFF8022B649BD48FEF794
:1049800007FF4FF48072B349BB48FEF701FF4FF4B5
:104990000072B049B948FEF7FBFE4FF48062AD49A2
:1049A000B748FEF7F5FE4FF40062AA49B548FEF796
:1049B000EFFE4FF48052A749B348FEF7E9FE4FF4EB
:1049C0000052A449B148FEF7E3FE4FF48042A149EA
:1049D000AF48FEF7DDFE4FF400429E49AD48FEF7BA
:1049E000D7FE0122AC49AD48FEF7D2FE0222AA4909
:1049F000AB48FEF7CDFE0422A749AA48FEF7C8FE41
:104A00000822A549A848FEF7C3FE1022A249A748DC
:104A1000FEF7BEFE2022A049A548FEF7B9FE4022BF
:104A20009D49A448FEF7B4FE80229B49A248FEF7A8
:104A3000AFFE4FF480729849A048FEF7A9FE4FF4EC
:104A4000007295499E48FEF7A3FE4FF4806292499A
:104A50009C48FEF79DFE4FF400628F499A48FEF78E
:104A600097FE4FF480528C499848FEF791FE4FF420
:104A7000005289499648FEF78BFE4FF480428649E2
:104A80009448FEF785FE4FF4004283499248FEF7B2
:104A90007FFE012291499248FEF77AFE02228F4959
:104AA0009048FEF775FE04228C498F48FEF770FE91
:104AB00008228A498D48FEF76BFE102287498C48F0
:104AC000FEF766FE202285498A48FEF761FE4022F5
:104AD00082498948FEF75CFE802280498748FEF7BC
:104AE00057FE4FF480727D498548FEF751FE4FF422
:104AF00000727A498348FEF74BFE4FF48062774993
:104B00008148FEF745FE4FF4006274497F48FEF786
:104B10003FFE4FF4805271497D48FEF739FE4FF455
:104B200000526E497B48FEF733FE4FF480426B49DA
:104B30007948FEF72DFE4FF4004268497748FEF7AA
:104B400027FE012276497748FEF722FE02227449A9
:104B50007548FEF71DFE042271497448FEF718FEE1
:104B600008226F497248FEF713FE10226C49714803
:104B7000FEF70EFE20226A496F48FEF709FE40222A
:104B800067496E48FEF704FE802265496C48FEF7CF
:104B9000FFFD4FF4807262496A48FEF7F9FD4FF459
:104BA00000725F496848FEF7F3FD4FF480625C498C
:104BB0006648FEF7EDFD4FF4006259496448FEF780
:104BC000E7FD4FF4805256496248C5E000080140B5
:104BD000082A0020142A0020202A00202C2A002045
:104BE000382A0020442A0020502A00205C2A002075
:104BF000682A0020742A0020802A00208C2A0020A5
:104C0000982A0020A42A0020B02A0020BC2A0020D4
:104C1000000C0140C82A0020D42A0020E02A0020ED
:104C2000EC2A0020F82A0020042B0020102B002062
:104C30001C2B0020282B0020342B0020402B002090
:104C40004C2B0020582B0020642B0020702B0020C0
:104C50007C2B002000100140882B0020942B00208A
:104C6000A02B0020AC2B0020B82B0020C42B002050
:104C7000D02B0020DC2B0020E82B0020F42B002080
:104C8000002C00200C2C0020182C0020242C0020AC
:104C9000302C00203C2C002000140140482C002027
:104CA000542C0020602C00206C2C0020782C00203C
:104CB000842C0020902C00209C2C0020A82C00206C
:104CC000B42C0020C02C0020CC2C0020D82C00209C
:104CD000E42C0020F02C0020FC2C002000180140C7
:104CE000082D0020142D0020202D00202C2D002028
:104CF000382D0020442D0020502D00205C2D002058
:104D0000682D0020742D0020802D00208C2D002087
:104D1000982D0020A42D0020B02D0020BC2D0020B7
:104D2000001C0140C82D0020D42D0020E02D0020C3
:104D3000EC2D0020F82D0020042E0020102E002045
:104D40001C2E0020282E0020342E0020402E002073
:104D50004C2E0020582E0020FEF71AFD4FF4005272
:104D600062496348FEF714FD4FF480425F49614891
:104D7000FEF70EFD4FF400425C495F48FEF708FD68
:104D800001225E495E48FEF703FD02225B495D4851
:104D9000FEF7FEFC042259495B48FEF7F9FC0822A5
:104DA00056495A48FEF7F4FC102254495848FEF779
:104DB000EFFC202251495748FEF7EAFC40224F49B8
:104DC0005548FEF7E5FC80224C495448FEF7E0FCCC
:104DD0004FF4807249495248FEF7DAFC4FF40072F2
:104DE00046495048FEF7D4FC4FF4806243494E4890
:104DF000FEF7CEFC4FF4006240494C48FEF7C8FC79
:104E00004FF480523D494A48FEF7C2FC4FF400522D
:104E10003A494848FEF7BCFC4FF4804237494648BF
:104E2000FEF7B6FC4FF4004234494448FEF7B0FCAC
:104E3000434B444A44494548FFF73AF8444B454AF6
:104E400045494648FFF734F8454B464A46494748E6
:104E5000FFF72EF8464B474A47494848FFF728F8DE
:104E6000474B484A48494948FFF722F84848494BC8
:104E7000494A4A4900904A48FEF788FB49484A4B4C
:104E80004A4A4B4900904B48FEF780FB4A484B4B3F
:104E90004B4A4C4900904C48FEF778FB3C4B3D4A4E
:104EA0003D494A48FFF769FC494B4A4A4A494B4841
:104EB000FEF73BFA2A4B2B4A49494A48FEF735FA96
:104EC000354A49494948FFF755FC414A4149484854
:104ED000FFF750FC224A23494648FFF74BFC464A5D
:104EE00046494748FEF70CFA08BD0000001C014087
:104EF000642E0020702E00207C2E00200020014017
:104F0000882E0020942E0020A02E0020AC2E002001
:104F1000B82E0020C42E0020D02E0020DC2E002031
:104F2000E82E0020F42E0020002F00200C2F00205F
:104F3000182F0020242F0020302F00203C2F00208D
:104F4000802A0020742A002000380140482F0020C9
:104F50002C2A0020202A002000440040902F00200E
:104F60004C2B0020402B002000480040D82F002070
:104F70000C2C0020002C0020004C00402030002091
:104F8000602C0020182C00200050004068300020C9
:104F90005C2A0020502A0020442A002000300140D2
:104FA000B03000207C2B0020702B0020642B0020D0
:104FB00000380040BC300020042B0020F82A0020DC
:104FC000EC2A0020003C0040C8300020D4300020F3
:104FD0001C2B0020102B002000540040E830002043
:104FE00000580040FC300020382A002010310020FA
:104FF0002031002030310020342B0020282B0020CD
:105000004031002010B5044C0323182203492046E8
:10501000FFF7CBFB044610BD402900204D190008C6
:1050200008B50E480E4B0F4A0F4900900F48FFF786
:1050300096FB01220E490F48FFF724F900220E4982
:105040000E48FEF798F90E490E48FFF7A7F84FF003
:1050500080410D48FFF7A2F808BD0000BC300020D9
:10506000DC2E0020D02E0020E82E002088310020E9
:10507000382D00209C320020042B002098000020B6
:10508000002C0140B0320020D032002030380A28F5
:1050900001D201207047002070472DE9F0410446FD
:1050A0000D4600F081FA4FF47A734FF0000CA4FB28
:1050B000032805FB038304FB0C3382185941D61ED9
:1050C00061EB0C0700BF00F06FFA801BB941FAD307
:1050D000BDE8F08110B504460021204600F034F907
:1050E000002410BD70B53C48FDF748FFFDF72EFFCA
:1050F00053203949091F81F8260054213648001FE2
:1051000080F82710002180F8281080684FF47A7208
:10511000B0FBF2F1B1F1807F00D31DE021F07F40C0
:10512000401E4FF0E022506150170F22002807DA8E
:1051300013071D0E294B00F00F04241F1D5503E01B
:1051400013071C0E264B1C5400BF00204FF0E0221A
:1051500090610720106100BF0420FDF7E3F91E48AD
:10516000001F80681F49B0FBF1F01F490880002034
:105170001949091F08601D4A1060506000BF164899
:10518000001F0068401C1449091F08601748036885
:10519000406864229A1A70F10000F0D30846006853
:1051A00000EB800040000860FEF76AF84FF4A06052
:1051B000FCF7D6FF01210846FDF718F801210C483D
:1051C000FCF748FF4FF47A7000F03EFA094908886E
:1051D000FDF7B6FE70BD0000B400002018ED00E041
:1051E00000E400E040420F003000002028000020D2
:1051F00000023000E028002010B5044600212046BF
:1052000000F056F910BD000000BF00BF00BF00BF96
:1052100000BF00BFFDF7AEFF2F48FFF719FA2E4879
:10522000FFF734F82C48FFF711F954E02B48FEF74C
:10523000C7FF2A48FFF71BF800281CD02848007831
:1052400001280AD10020264908702648FEF780F878
:1052500025A12C48FEF787FC09E0012020490870B1
:105260002048FEF769F828A12648FEF77CFC2DA10E
:105270002448FEF778FC2F480078012811D11848FF
:10528000007801280DD12C480078012809D1002090
:105290002849087028490870284801782848FEF7EE
:1052A0000DF80D48FFF754FAA8B90B48FFF70EF9AF
:1052B00024490948FFF76AF90546002405E021481A
:1052C000015D1048FEF7F2FB641CAC42F7DB0248BC
:1052D000FFF7BCF800BFA9E7883100209C3200200E
:1052E000AA000020980000200D0A636C69636B20FF
:1052F0006576656E74212C72785F6D6F64756C6570
:1053000000000000482F00200D0A636C69636B20C9
:105310006576656E7421A3AC74785F6D6F64756C8F
:1053200065000000636C69636B206576656E7421AF
:105330000D0A0000AC000020AB000020A9000020F6
:10534000F03C0020F03600202DE9F04106460D46E5
:105350003746012D01DBBDE8F081DEB1083F3C4658
:105360000D49606809680840A0B1206890B90A49F1
:10537000606809688843606072B6084850F8250084
:1053800061680844054941F825002946204600F097
:1053900055F862B600BFDEE758000020500000203C
:1053A00070B51F4D55F820401E4D55F8201001F0E6
:1053B00007053DB1C91D21F007011A4D55F82050D0
:1053C0004D1B641B0B46184D45F830300025164E1A
:1053D00006EBC00675601919083921F00701134D55
:1053E00045F820100025114E56F8206075600F4ECC
:1053F00056F8206035601A468D1A55600B4D55F8E9
:10540000205015600A4E556846F82050094E5568E0
:1054100046F820504FF00045074E356070BD000043
:105420003C00002040000020440000204C000020F0
:1054300054000020500000205800002030B50246E3
:105440000B46194C04EBC30000E00068046894426A
:10545000FBD3014644680C44944204D14468556827
:105460002C4444600246114654680C440568AC4222
:1054700013D10E4D55F823500468AC4208D054683F
:1054800005686D682C44546004682468146006E064
:10549000064C54F82340146001E004681460904204
:1054A00000D0026030BD0000440000204C0000200D
:1054B0002DE9F04705460E464FF00009012E02DBAC
:1054C0000020BDE8F08772B6324850F8260010B9C7
:1054D0003046FFF765FF304800682840002855D166
:1054E0004DB1083505F0070028B105F00700C0F1FF
:1054F0000800054400BF002D48D0284850F8260079
:10550000A84243D3264800EBC60750F8364001E0D6
:10551000274624686068A84202D220680028F7D194
:105520001C4850F82600A04230D0386800F1080925
:10553000206838606068401B10280AD904EB050811
:105540006068401BC8F80400656031464046FFF7BC
:1055500075FF124850F826006168401A0F4941F85B
:105560002600084650F826000E4951F826108842B9
:1055700005D20A4850F826000A4941F82600064993
:1055800060680968084360600020206062B6484691
:1055900097E700004C000020580000205000002039
:1055A00044000020540000202DE9F04300BFEFF339
:1055B00010831A4672B64FF0E0231B6903F4803360
:1055C000002B0DD000BFEFF3058303B942B1144B9C
:1055D0001D685B686D1C43F10003114C256063601E
:1055E0004FF0E0239B690F4C2488B3FBF4F3C3F521
:1055F0007A7300250A4E346877684FF47A7CA4FBEE
:105600000C6907FB0C9704FB05771C46A01945EBBA
:10561000070100BF82F3108800BFBDE8F0830000DF
:1056200028000020300000200149086849687047C0
:1056300028000020024B1960024B43F820207047DD
:1056400070000020882900204FF47A7191FBF0F15E
:10565000024A118002490880704700003A00002089
:105660003800002010B50446034951F824000349CE
:105670000968884710BD00009C2900207C0000209C
:105680000346034840F82320024801600020704789
:105690009C2900207C00002010B500290AD0087841
:1056A000002807D005487844FAF7C8FF002801D041
:1056B000002010BD0248784410BD00000A0400001C
:1056C0000204000010B500290AD00878002807D08D
:1056D00005487844FAF7B2FF002801D0002010BD39
:1056E0000248784410BD0000EE040000E60400000B
:1056F0000160002242617047491058BFC1F140412A
:105700005B1058BFC3F140438B42EFF300807047FA
:1057100051EA030C17D41CF5801F58BFBCF5801F3D
:1057200000F10680994218BF704708BF9042704749
:1057300007D711F5801F58BF13F5801F19D4994260
:105740007047894270471CF5801F08D5BCF5801F43
:10575000F7D58B4218BF704708BF824270474FF49D
:10576000001C1CEB410F38BF1CEB430F01D28B42D6
:10577000704770B500F008F8922449004FF00051CE
:105780004FF08053FFF7B8BF0EF1020E2EF0030E5C
:105790005EF8046B364205D4012A43EB030515F588
:1057A000001F12D8012841EB010C1CF5001F0CD87A
:1057B0000ED14FEAD17C15F5001F0CEB4C0C0CF10F
:1057C000020C08BF4CEBD37C04E04FF0080C01E066
:1057D0004FEAD37C0CEB4C0526FA05F606F00706DB
:1057E000B6F1040C06D20EEB860CBDE870404CF00E
:1057F000010C6047DFE80CF0090B02024FF000419A
:105800004FF00000A1F5002170BD19461046012897
:1058100051EB010418BFD4F5001484BF002001F03F
:10582000004170BD0808A0F500114FEA3101704732
:1058300043004FEAD30C4FEA3C0C43401FBF4007E4
:105840000CF1605113F0FE4F70471CF0006F03D154
:1058500000200CF0004170470CF0004343EA507008
:1058600010B540EACC0000F04FF800BF00000092F5
:105870004FEA0001FFF7D6BF4FF000414FF00000A4
:10588000A1F500217047401058BFC0F140404910B9
:1058900058BFC1F140418142EFF3008070470000E2
:1058A00050EA010C00F113801CF5000F58BFBCF545
:1058B000000F01D48842704707D710F5000F58BF7A
:1058C00011F5000F15D488427047894270471CF5C6
:1058D000000F04D5BCF5000FF7D5814270474FF09B
:1058E000807C1CEB400F38BF1CEB410F01D2814282
:1058F000704710B500F008F8922449004FF00050AE
:105900004FF08051FFF7BFBF0EF1020E2EF0030ED5
:105910005EF8044B244204D44FEA4102B2F17F4FB7
:1059200011D84FEA4003B3F17F4F0CD80ED14FEAA4
:10593000D07CB2F17F4F0CEB4C0C0CF1020C08BF89
:105940004CEBD17C04E04FF0080C01E04FEAD17C35
:105950000CEB4C0324FA03F404F00704B4F1040C38
:1059600006D20EEB840CBDE810404CF0010C6047F1
:10597000DFE80CF0070802024FF00040A0F58000BD
:1059800010BD0846420018BFD2F1807288BF00F0F7
:10599000004010BDFBF72BB8040000080000000019
:1059A00000000002000100001000000000000000E4
:1059B0000000000030313233343536373839414257
:1059C0004344454640305800303132333435363761
:1059D00038396162636465664030780002400000D7
:1059E000000000A00000000005400000000000C80A
:1059F000000000000C4000000000409C000000007F
:105A0000194000000020BCBE00000000344000002F
:105A1000BFC91B8E00000004B5400000504BCFD022
:105A20006607E2CF010000006C4100003E8251AAEF
:105A3000DFEEA73401000000D9420000DCB5A0E28F
:105A40003A301F97FFFFFFFFB4450000FD25A0C8B7
:105A5000E9A3C14FFFFFFFFFFF3F000000000080F0
:105A600000000000FF3F0000000000800000000078
:105A70000000000000000000AD3A00080000000037
:105A80000000000000000000000000000000000016
:105A9000E85B000800000020B000000028010008BA
:105AA000985C0008B0000020884500004401000810
:105AB0001001000043000000F8FFFFFF00404040DD
:105AC00040404040404041414141414040404040D1
:105AD000404040404040404040404040400502027D
